:1000000000800020BD0100009D0D0000590D000082
:10001000590D0000590D0000590D0000590D000048
:10002000590D0000590D0000590D00009D0D0000F4
:100030009D0D0000590D0000F5230000F92300007C
:100040009D0D00009D0D00009D0D00009D0D000008
:100050009D0D00009D0D00009D0D00009D0D0000F8
:100060009D0D00009D0D00009D0D00009D0D0000E8
:100070009D0D00009D0D00009D0D00009D0D0000D8
:100080009D0D00009D0D00009D0D00009D0D0000C8
:100090009D0D00009D0D00009D0D00009D0D0000B8
:1000A0009D0D00009D0D00009D0D00009D0D0000A8
:1000B0009D0D00009D0D00009D0D00009D0D000098
:1000C0009D0D00009D0D00009D0D00009D0D000088
:1000D0009D0D00009D0D00009D0D00009D0D000078
:1000E0009D0D00009D0D00009D0D00009D0D000068
:1000F0009D0D00009D0D00009D0D00009D0D000058
:100100009D0D00009D0D00009D0D00009D0D000047
:100110009D0D00009D0D00009D0D00009D0D000037
:100120009D0D00009D0D00009D0D00009D0D000027
:100130009D0D00009D0D00009D0D00009D0D000017
:100140009D0D00009D0D00009D0D00009D0D000007
:100150009D0D00009D0D00009D0D00009D0D0000F7
:100160009D0D00004D1100009D0D00009D0D000033
:100170009D0D00009D0D00009D0D00009D0D0000D7
:100180009D0D00009D0D00009D0D00009D0D0000C7
:100190009D0D00009D0D00009D0D00009D0D0000B7
:1001A0009D0D00009D0D00009D0D00009D0D0000A7
:1001B0009D0D00009D0D00009D0D0000574B4CF261
:1001C000205210B5DA814DF62812DA8100BF00BF47
:1001D00000F0E8FD524B4FF010621A63514A9A63E7
:1001E000514ADA63514A136913F4807303D153619E
:1001F0004FF4A85313614E4B9A78110703D59A78A0
:1002000042F008029A704B4B4B482A221A704B4B13
:10021000DA1C121AC11E22F00302994288BF002282
:10022000474900F0C5FC474B4748DA1C121AC11E6B
:1002300022F00302994288BF0022002103F0E4F972
:10024000424943484FF4DE7200F0B2FC414B424A4F
:10025000802103F8011B9342FBD14FF0E0233C4A7D
:10026000C3F8082D3D4B8A221A70A3F5805324222F
:100270005A70A0221A709A799207FCD59A79D406FE
:10028000FCD4374B9A7902F00C02082AFAD10322E7
:100290001A7140225A719A799006FCD5304A9379A6
:1002A0005906FCD51E4B2F4959640221996420211F
:1002B0001170917901F00C010C29FAD12A4A5A6087
:1002C0004FF0E023294A5A6100229A6107221A61FD
:1002D000274AC3F8202D62B600F0DEFD134B5B69A0
:1002E000DA0705D5234800F0CBFD234B234ADA611A
:1002F000234B1B785B0609D51F4C204BE2699A42C1
:1003000004D11C4800F0BCFD0023E36100F050FD67
:1003100003F064FA00F044FCFEE700BF0020054053
:1003200000800440823F04000100002B00D0034005
:1003300000D0074000E00740308CFF1F1094FF1FE3
:10034000A89800004C9AFF1F1094FF1F00000000A7
:100350000082FF1F00E400E05FE400E00050064080
:100360000040064000000301C0100500FF760100B8
:10037000000020208BD3C26700E00340A5C3945A3D
:1003800000F00740FFFFFFFFFFFFFFFFFFFFFFFF42
:10039000FFFFFFFFFFFFFFFFFFFFFFFFFFFFFFFF6D
:1003A000FFFFFFFFFFFFFFFFFFFFFFFFFFFFFFFF5D
:1003B000FFFFFFFFFFFFFFFFFFFFFFFFFFFFFFFF4D
:1003C000FFFFFFFFFFFFFFFFFFFFFFFFFFFFFFFF3D
:1003D000FFFFFFFFFFFFFFFFFFFFFFFFFFFFFFFF2D
:1003E000FFFFFFFFFFFFFFFFFFFFFFFFFFFFFFFF1D
:1003F000FFFFFFFFFFFFFFFFFFFFFFFFFFFFFFFF0D
:10040000FFFFFFFFFFFFFFFFFFFFFFFFDEF9FFFF23
:100410000548064B1B1AD90F01EBA301491002D066
:10042000034B03B1184770471094FF1F1094FF1F30
:100430000000000008B5054B1BB105490548AFF3A6
:100440000080BDE80840FFF7E3BF00BF00000000E8
:100450001094FF1FA89800002DE9F843254D264C65
:100460002E68264FDFF8989040F2EE2801F028FF22
:10047000237883B33B78DA072DD52B68D9F8002091
:100480009B1A0E2B27D91F4C1F4E204F642000F0C3
:1004900055FD002323600DE02568284600F040FB51
:1004A000E9B20246384600F06BF923680133072BA6
:1004B00023601DDC3368BFF35B8FDB07ECD4304671
:1004C00000F0A0FC0028E7D0384600F033F93046B1
:1004D00000F0A0FCE0E72B6822789B1B2AB1B3F563
:1004E000FA6FD0D801F0ECFEC0E74345FAD9CAE76D
:1004F000BDE8F8836C94FF1F5D95FF1F0897FF1FF1
:100500000C97FF1F3094FF1F2894FF1F2C94FF1F90
:100510002DE9F047414C424D424E434FDFF80C81EC
:10052000002323600E200BE0012B3BD0236845F80D
:1005300023900133072B23604EDC3D4A52F8230001
:10054000C0B200F045FA236855F82320821A002A29
:10055000B8BF5242082A8146EBDD00283368824644
:10056000B8BF00F1070A4FEAEA0A002BDCD13B686A
:10057000BFF35B8FDA0739D5404600F0FDF82368FA
:10058000C05C4FEA0A63000403F0FE4300F4FE007F
:10059000184340F4304040F00B0001F053FA336848
:1005A000012BC3D13B68BFF35B8FDB072AD54046E5
:1005B00000F0E2F82368C05C4FEA0A6A00040AF01F
:1005C000FE4A00F4FE0040EA0A0040F4304040F0E9
:1005D0000B0001F037FAA9E7002001F0E7FA002844
:1005E000FAD1BDE8F047122000F0A8BC384600F070
:1005F00009FC0028C0D0404600F09CF8384600F0C6
:1006000009FCB9E7384600F0FDFB0028CFD0404692
:1006100000F090F8384600F0FDFBC8E73094FF1F6B
:100620003894FF1F3494FF1F2894FF1F2C94FF1F42
:100630001C93000000F03EBA70B50C4B82B05A54C7
:100640000646084615460C4600F06AFA854203D075
:100650002946204600F07EFA054900952346324699
:10066000044800F0E7F802B070BD00BF5894FF1FC7
:100670003C9300006C8CFF1F30B5044687B00D46DC
:100680002548142101F016FD244800F0BBF8244948
:100690002A46204602F00AFF08B107B030BD0446E2
:1006A0000D212048204D01F005FD1C4800F0AAF85E
:1006B0001E4A07CA6B4603C31D491A800DF101008B
:1006C000082200F075FA22460A21684601F00AFA6B
:1006D00000F05EF84C218DF8121044F24913C0F37B
:1006E0004641ADF810308DF81410F7230C21224646
:1006F00003958DF81730450EC0F34603C0F346242A
:100700000DEB01008DF813508DF815408DF8163063
:1007100001F0E8F907B030BD709300006C8CFF1F4A
:10072000308CFF1F88930000F0534552B0930000B7
:100730005894FF1F38B50949094B0A4A0A4D1A60F7
:1007400004460A480D6000F03FF800F021F808491F
:100750000246084800F06EF8204638BDB495FF1FE9
:100760008895FF1F39060000790600006094FF1F7E
:10077000989300006C8CFF1F004870475894FF1F2F
:10078000014B5A54704700BF5894FF1F00F092B9B4
:1007900072B60B4A4FF0700C41200F21802382F873
:1007A00000C0D0719171137013781B06FCD590684E
:1007B00062B6044B98423CBF00EB8000400070479B
:1007C000000002408096980072B60D4A41234FF017
:1007D000700C82F800C00F21D371802391711370C7
:1007E00013781B06FCD5936862B64FEA136C190C9C
:1007F0001A0A80F800C041708270C370704700BF51
:100800000000024000B5036883B040F60D22ADF849
:1008100004205B68022201A9984703B05DF804FB3D
:10082000034B022888BF034618461B685B681847BD
:100830006C8CFF1F0EB400B582B003AA52F8041BE3
:10084000019202F003FE02B05DF804EB03B07047C2
:1008500038B52A4C2A4D01E001F032FD636A1B06CF
:10086000FAD46B6A13F08003F6D172B625490A7880
:10087000002A40D0A26BE06B0244206C0244606C02
:100880000244A06C0244E06C0244C2F34E0242F403
:100890000042E262A26DE06D0244206E0244606E8E
:1008A0000244A06E0244E06E0244C2F34E0242F4DF
:1008B00000422263AA6BE86B0244286C0244686C15
:1008C0000244A86C0244E86C0244C2F34E0242F4B3
:1008D0000042EA62AA6DE86D0244286E0244686E26
:1008E0000244A86E0244E86E0244C2F34E0242F48F
:1008F00000422A630B7062B638BD00BF00B00340EF
:1009000000B00B406894FF1F2A4B2B4A6020E12166
:100910001870597013782948082B34D00A2B20D02E
:100920000C2B274B0CBF35213D2112228160C26068
:100930009960DA60234B21491B78214ACBB101230E
:100940000B621362204B1D491B781D4A012B13D9E2
:10095000042B1BD884234B6253621C4B01221A7058
:100960007047174B392113228160C2609960DA60A9
:10097000E0E70B621362E5E780234B625362134B9F
:1009800001221A7070470E4B0121ECE7082B06D8A4
:1009900085234B6253620D4B01221A707047102B56
:1009A00094BF862387234B625362084B01221A703F
:1009B000704700BF00400740648CFF1F00B0034039
:1009C00000B00B406694FF1F658CFF1F6894FF1FEB
:1009D000282829D8304B2DE9F0411E5CFF2E53D03A
:1009E0002E4B1B7813BB340624D472B62C4C2D4DE1
:1009F00001272E60277062B672B62B68180609D4DC
:100A00002378002BF5D062B601F05AFC72B62B6841
:100A10001906F5D5234A00231069237062B6224BCC
:100A20001B781841BDE8F08100207047FFF710FFE8
:100A30003406DAD572B61D4D1D4C06F0400801276C
:100A400006F03F06E368B8F1000F20D023F0100352
:100A5000E36026602F7062B672B623681A0609D466
:100A60002B78002BEED062B601F02AFC72B6236818
:100A70001B06F5D50E4A002310692B7062B60A4B8F
:100A80001B781841BDE8F0810020BDE8F08143F0FB
:100A90001003E360DDE700BFBC9300006894FF1F14
:100AA0006494FF1F00B003406794FF1F6594FF1F0D
:100AB00000B00B4010B5174B0FCB84B0EC468CE860
:100AC0000F00154B5A78910717D51A78124C12F06F
:100AD000700218BF1A7080210023E1713322237144
:100AE0000323E272A37272B64CF0010320469847CA
:100AF00062B6237813F0700309D1084B064901E070
:100B0000013B02D04A78D207FAD504B010BD237059
:100B100004B010BDE893000000000240410D030046
:100B2000B0F5006F11D210B5094B5B78DB070446B6
:100B300004D504F1A0542078C0B210BD04F1A05433
:100B4000FFF7B8FF2078C0B210BD0020704700BF8B
:100B500000000240B0F5006F1FD238B50F4B5B7834
:100B6000DA0704460D4610D504F1A0542378AB42B1
:100B70000AD00A4A137813F0700318BF1370074A9B
:100B800025705378DB07FCD538BD04F1A054FFF77E
:100B900091FF2378AB42ECD1F6E7704700000240AA
:100BA00008B5FFF759FCFFF7B3FC01F089FBFAE742
:100BB00001B441EA000313F003036FD1403A41D37B
:100BC00051F8043B40F8043B51F8043B40F8043B27
:100BD00051F8043B40F8043B51F8043B40F8043B17
:100BE00051F8043B40F8043B51F8043B40F8043B07
:100BF00051F8043B40F8043B51F8043B40F8043BF7
:100C000051F8043B40F8043B51F8043B40F8043BE6
:100C100051F8043B40F8043B51F8043B40F8043BD6
:100C200051F8043B40F8043B51F8043B40F8043BC6
:100C300051F8043B40F8043B51F8043B40F8043BB6
:100C4000403ABDD2303211D351F8043B40F8043B56
:100C500051F8043B40F8043B51F8043B40F8043B96
:100C600051F8043B40F8043B103AEDD20C3205D366
:100C700051F8043B40F8043B043AF9D204320AD05C
:100C8000D2071CBF11F8013B00F8013B03D30B78DE
:100C900003704B78437001BC704700BF0C2A4AD3E5
:100CA00010F0030311D0C3F10403D21ADB071CBFF9
:100CB00011F8013B00F8013B07D311F8013B00F8A4
:100CC000013B11F8013B00F8013B11F003033FF435
:100CD00075AF30B4043AC91AC3F1040C51F8044B8F
:100CE000022B19D0032B0BD0240A51F8043B1D060C
:100CF00044EA050440F8044B1C46043AF4D216E0DA
:100D0000240E51F8043B1D0244EA050440F8044B4C
:100D10001C46043AF4D20AE0240C51F8043B1D04AA
:100D200044EA050440F8044B1C46043AF4D2043269
:100D3000B1EB0C0130BC043AA0D3013A11F8013BED
:100D400000F8013BF9D20B7803704B7843708B7835
:100D5000837001BC704700BF08B50F4C636B58032C
:100D60000DD4636B59050FD4636B1A0511D4636BF3
:100D7000DB04F3D500F012F8636B5803F1D500F0F3
:100D8000E5F9636B5905EFD500F008F8636B1A05B8
:100D9000EDD500F003F8EAE70080044008B5FFF75E
:100DA000DBFF00BF014B10221A8070470020054076
:100DB000704700BF094A08B50346106833B1694659
:100DC0000344A1F580518B4201D2136008BD02F0AB
:100DD000FFFC0C2303604FF0FF3008BD688CFF1F41
:100DE000002070474FF0FF30704700BF4FF40053B2
:100DF0004B600020704700BF012070474FF0FF306C
:100E0000704700BFD0E9003213430CBF012000201F
:100E1000704700BF01220023C0E90023704700BFD4
:100E2000FEE7FFFF01F1FF3C70B56546002401E0DD
:100E300070460134B0FBF2FE02FB1E03092B03F1E6
:100E400030068ABF3733F3B2DBB2904205F8013F78
:100E5000EED2631C0022CA54C8187CB162461CF84A
:100E6000015F10F801ED8CF800E0A1EB0C030232F9
:100E7000013B521A23449A420570EFDB084670BDCD
:100E8000034B002210215A615A6018605961704763
:100E900000D00340704700BFF0B54FF0E0244FF49E
:100EA00000054FF0807CC4F80851C4F808C14FF029
:100EB000007CC4F808C11D4A1D481E494FF0806CD3
:100EC000C4F808C1282300274BF6FF7609254FF008
:100ED000006CC4F808C183B057609660D36053615A
:100EE000D3615362D3625363D36353641560476025
:100EF0008660C360436105604F608E60CB604B616C
:100F00000D60FFF701FDFFF7C5FF0B4C2368009351
:100F1000009B132BFAD900F0D5FC23680193019BA9
:100F2000B3F5967FF9D303B0F0BD00BF0080034056
:100F30000090034000800B406C94FF1F2DE9F843A4
:100F4000044672B6204F4FF0E02293693D68D2F814
:100F5000042D62B6520102D5322B88BF01350CB97F
:100F6000BDE8F883DFF86490DFF86480A9EB030341
:100F7000A8FB03234FF47A7202FB05F505EB9315EA
:100F80004FF0E02672B6B1693A68D6F804CD62B681
:100F9000A9EB0103A8FB03031CF0806FC5EB9313BF
:100FA0004FF47A7002D0322988BF013200FB02333D
:100FB000B3F57A7F04D3013CD2D005F57A75E1E729
:100FC00001F07EF9DEE700BF6C94FF1FFF760100A1
:100FD000ABAAAAAA431E042B17D872B60C4951F823
:100FE000230080B110B40B4CB0F800C034F81320CB
:100FF000A2EB0C02D0F804C041F823C024F813205F
:1010000062B610BC704762B670470020704700BFE0
:101010000095FF1F6095FF1F013804280BD872B69A
:10102000074B53F8203043B100205B680130002BA0
:10103000FBD162B67047002070471846F9E700BF41
:101040003095FF1F10B472B6194A1A4C042312F8D7
:10105000011B090743F0010C05D554F8331061B1A9
:1010600054F83C10B9B10433182BF0D162B6124BCE
:1010700000221A7010BC00F09DBC0F4904EBC302A3
:10108000083050600A780D4844F83300013A0A707D
:1010900062B610BC7047084A094904EBCC0308301B
:1010A0005860137844F83C10013B137062B6F0E7C7
:1010B000849400000080FF1F6A95FF1F8800400095
:1010C000C8004000421E042A0ED81C4B400140F0CC
:1010D000100010B4034472B6194CA05C03281CD84D
:1010E000DFE800F01315031870470520A05413F033
:1010F000080F088814BFC8228822083142EA00423B
:1011000059601A6062B610BC70470320EEE70833DE
:101110000220EBE708330420E8E70A4B53F82200EB
:1011200038B1094B53F82200416043F8221062B6EF
:10113000E9E743F82210044BF7E700BF0080FF1FE8
:101140005895FF1F3095FF1F4495FF1F2DE9F04F65
:10115000DFF8D0A2DFF8D0B285B03DE0B34D9E08F5
:1011600005EBC607013A796813F00803D4B2A1F180
:10117000080040F0BA8055F836204FEA124C120CA5
:1011800021F808CC00F0A98021F8063C41F8043C85
:10119000A74B53F82420002A00F00382A54B53F8F4
:1011A0002420506043F82400A34B33F814209444C7
:1011B00023F814C000F0DEFB002800F0EB8117F0EC
:1011C000080F9E4B00F1080018BF5B46786045F899
:1011D000363008238AF880309AF880305907DCB21C
:1011E0001DD5974B1B78BBB196490A7802F0FF03D7
:1011F0002AB1013BDBB20B70002B00F0488392490F
:101200000A7802F0FF032AB1013BDBB20B70002B1E
:1012100000F0ED8100F0AEFC04238AF8803014F079
:10122000080200F0CC819AF89020D3B2120995D12F
:10123000DFF8F8919B0809EBC30459F833006468A0
:10124000C0F3830009287CD00FD80138012808D8C2
:101250007E4A158842F22100854200F0FB8149F860
:1012600033B001238AF89430B3E70D28F9D1D4E9DB
:101270000007774D49F833B0744E764CC9F810200A
:1012800083B240F2816CC9F818202A6063454FF0A0
:101290000102C6E90007227000F2FF80B3F5D06FAB
:1012A00080F0CB82B3F5817F00F0268240F2DE80B1
:1012B00040F2023293427BD107F07F07052F00F204
:1012C0000881020C40F00581634911F8273043F092
:1012D000020301F82730134670E017F0080F574B50
:1012E00018BF5B4645F8363073E700F063FB5B4997
:1012F0005B4A51F82430002B00F05781586841F8C0
:101300002400115D03F108007860032905D8DFE8A7
:1013100001F0120F1502042111551A8817F0080F59
:1013200014BFC823882343EA024345F8363050E708
:1013300002211155F1E703211155EEE70521115561
:10134000EBE7434D2A683AB34649424C0F8846487A
:1013500094F800E00678402F3B4628BF4023BEF1BA
:10136000000F8EF0010E84F800E046F0020486F0D3
:101370000106067009EBC400426014BFC820882033
:1013800040EA03401A44FB1A9BB249F834000B8030
:10139000002B00F036812A602C4B1A88B2F5A06F22
:1013A0007FF45FAF9A788AF8982000225A7058E745
:1013B000B3F5A06F40F08D8000221346B6F806C04A
:1013C0002948944528BF944667460278402F28BF95
:1013D000402742F0020E3E0409EBCE0846F0C80654
:1013E000C8F8043049F83E6000263B442670BCEB48
:1013F000070782F00106067040F01181BCF13F0F33
:101400004FF0010509D946F00206027009EBC60249
:1014100025705360882349F8363001238AF89430C8
:101420001FE700BF00200740C80040000080FF1FEA
:101430000095FF1F1495FF1F6095FF1F8800400057
:101440005D95FF1F5E95FF1F1097FF1F2895FF1FDB
:10145000F494FF1FF194FF1FC02007403095FF1F39
:101460005895FF1FF294FF1FF094FF1F802B00F090
:101470008B81822B2DD107F07F07052F29D8A74A12
:1014800000231380A64B13F827309F0740F1FC81FF
:1014900001231370A14B022290E742F2210C634515
:1014A000BBD01DD942F2212293420DD1BFB2002FF1
:1014B00082D19C4B1A689C4B1A609C4BC0F307402E
:1014C00000221870134679E742F2213293423FF42A
:1014D00073AF0F238AF8C03001238AF89430C0E636
:1014E000B3F5086F00F04A81B3F5106FF1D1904B5E
:1014F000C0F307400425187059F835301A0606D491
:101500000135182D0CD059F835301A06F8D509EBED
:10151000C50301355868083800F04CFA182DF2D18F
:10152000844A854B0292854A0192854E854ADFF8AE
:1015300018820394009200251C4656F8047B2FB1B4
:1015400038467F6800F036FA002FF9D1009BD8F8B2
:10155000007043F8045B46F8045C00932FB13846F2
:101560007F6800F027FA002FF9D1029B48F8045B4E
:1015700043F8045B0293019B23F8025B01932378F9
:10158000023B032B00F20981DFE813F03F01040165
:101590003F0104016D4A45F836001378013313709A
:1015A00017E643F82400674BFCE5115D022926D0BD
:1015B0007FF60FAE03291DD10123135509E6E0077D
:1015C0006ED4210621D4A20708D5614B93F8882058
:1015D0000221D2B283F8882083F88010E30603D575
:1015E0005B4B102283F8802005B0BDE8F08F00F03F
:1015F00043FE0FE617F0080F14BF03230223135511
:10160000E7E53F2F98BF0022C5E6514B80220D2110
:1016100083F8C01083F88020A207DFD5D5E746F015
:1016200002060270402F09EBC6003A4628BF40224E
:1016300043601004134440F088000121BA1A49F8AD
:101640003600217055D02B60424B1A8001238AF856
:10165000943006E692885AB93F4AE51D14F8011BFA
:1016600002F8011FAC42F9D13C4A1268862A3CD0EC
:101670003B4C3C4825780278002D85F0010525700B
:1016800042F0020482F00102027009EBC4024FF042
:101690000000506014BFC822882249F83420DEE5DB
:1016A0002B4B30483049314C022583F8945002705E
:1016B0002F480C602F4D48608C600D24CD60FF20BA
:1016C0000A618A6183F8C04001219F2483F8880061
:1016D00083F8800083F8982083F88C0083F8844096
:1016E00083F8941005B0BDE8F08F234A0F201070E6
:1016F000BEE73F2FA7D890E607F07F07052F3FF6FC
:10170000E8AE000C7FF4E5AE054A12F8273023F06E
:10171000020302F82730002213464FE6F894FF1F19
:10172000C02007406C94FF1F0C97FF1F0897FF1FF6
:101730005D95FF1F4495FF1F5895FF1F6095FF1F84
:101740000095FF1F1495FF1F3095FF1F6A95FF1F1F
:1017500000200740F294FF1FFF96FF1F0097FF1F16
:10176000F194FF1FF094FF1F0080FF1F88004000CE
:101770007094FF1FB094FF1F5E95FF1F484B4949AF
:101780001B780B700B4619E6464A00231380454B25
:10179000022213E64FF001032370434BB34204F1DE
:1017A00001047FF4CAAE414E039CDFF80481414F2F
:1017B00000233370042518F8013B3F4AAB541B0744
:1017C00025D445F0020145F0030204350023182D0D
:1017D00049F8313049F83230EDD1384F25783A7830
:1017E00042F0020009EBC00C85F00106CCF8043091
:1017F000002D4DD1882382F0010226703A7049F8FD
:10180000303001238AF894302BE52570C5E700F0CD
:10181000B1F8002832D009EBC5030830586049F808
:10182000357000F0A7F808B345F0010309EBC302D7
:101830000830506049F833B0C3E7214A5368002BA1
:101840003FF447AE000CBFB204E013690C32002B2A
:101850003FF43FAE11888142F7D15188B942F4D1AB
:10186000000A03280CBF1A781289A7E533780133E0
:10187000337045F0010349F83300A2E7337849F8A3
:10188000350001333370CCE7064B022296E500BEEB
:101890002670C82382F001063E7049F83030BCE55E
:1018A0005D95FF1FF894FF1F1495FF1F6A95FF1F9A
:1018B0008494000088004000C0200740F094FF1F7F
:1018C0002494000070B500F0A1FD00231A4A1946C7
:1018D00042F8331002EBC3000133182B4160F7D1FB
:1018E000164C174B606B174D40F480206063C2F3B9
:1018F000072483F89C40144CFF204FF0010CC2F3E6
:101900000746120E83F8B0604FF0E02E83F8B42043
:1019100083F8800083F88800187483F894C02170DD
:1019200083F884C0702385F849304FF40072102387
:10193000CEF80821237270BD0080FF1F0080044094
:101940000020074000E400E00021074000F096BBC3
:1019500000F066BB00F040BB00F07ABB00F060BC5A
:1019600000F03ABC0846114600F0A4BB084600F05F
:1019700025BC00BF72B60D490B68B3FA83F01D2871
:1019800010DC4FF00042C24023EA02030B6062B653
:10199000074A00EBC000C10002EBC0000023535017
:1019A0004360704762B60020704700BF7C8CFF1F09
:1019B000BC83FF1F0E4BC31AB3F5076F10D20D4A3D
:1019C000127872B972B60C4A0C49A2FB032308685C
:1019D0004FF000421B0922FA03F303430B6062B687
:1019E0007047074A1278002AECD0FFF72BBB00BFE4
:1019F000BC83FF1F6A95FF1F398EE3387C8CFF1F65
:101A00005D95FF1F38B50C4B0C4D1B6829880446AB
:101A100043B1B1F5917F09D24B1C9BB2084A2B8090
:101A2000545438BDB1F5917FF6D338BD0448002237
:101A3000984700210123F1E7B495FF1FEE96FF1FA1
:101A4000CC95FF1F2DE9F843DFF88880DFF88890F8
:101A5000D8F800100123074689F80030B9B11F4DAE
:101A60004B8801EB8302013300240F2B2C7097600D
:101A700005D84B80002389F80030BDE8F883402367
:101A80000B800420FFF71EFBC8F80040F2E7144E5D
:101A90003378002BF1D0114D45F6215408E0013C7C
:101AA00013D02B788BB900F00BFC3378002BE4D0EB
:101AB0000420FFF7B1FA0528F1D8FFF75BFF0146D4
:101AC000C8F800000028EAD0CAE701232B70BDE85F
:101AD000F88300BF7495FF1F7195FF1F7095FF1F5E
:101AE0005D95FF1F12010329F8B50D46D7B216D92F
:101AF00047F00406C41C14F8023C14F8032C14F834
:101B0000010C1B0443EA0223334343EA0060033D14
:101B1000FFF798FF032D204604F10304EBD8032DB3
:101B200004D0022D11D0012D1BD0F8BD43780278CE
:101B300080781B0447F0070743EA02233B4343EA4C
:101B40000060BDE8F840FFF77DBF437802781B04D2
:101B500043EA022347F006001843BDE8F840FFF7C8
:101B600071BF007847F0050747EA0020BDE8F8405C
:101B7000FFF768BF70B50B4C257845B90A4E316840
:101B80000123237009B14B8813B90023237070BD62
:101B90009B000B800420FFF795FA0023356023702B
:101BA000F5E700BF7195FF1F7495FF1F2DE9F04108
:101BB000AC4E33680746002B63D01C885A8822F04D
:101BC00003011944043294428D686DD95A80C5F3DB
:101BD0000323A54A05F00F065C1CC5F3031313701D
:101BE000A6F10803062B4FEA152814D9B31E012BC2
:101BF0005FFA88F060D9052E00F0B680042E00F060
:101C00009A81731F022B40F2A1810F2E00F0E98010
:101C10000020BDE8F0810FB1BC42F9D1082EC5F318
:101C200003336DD0092E7DD00A2E00F08D800B2E4F
:101C300000F092800C2E00F0B3800D2E00F0C380D7
:101C40000E2BE5D1894B8A4A1B68E0211170002BCD
:101C500000F09B81690CC5F3064201F47E511143EB
:101C6000E4B2A1F50051204698472E0CF6B22D0E95
:101C7000804B814A1C70814B16701D700120BDE89D
:101C8000F0817F4B1B78002BC2D00520FFF7A2F913
:101C9000034630600028BBD00488002C8ED1FFF7AB
:101CA00089FE34602046B4E71846FFF783FE05201E
:101CB000FFF790F930608AE7F1380E28A8D801A321
:101CC00053F820F0071F0000FF1D0000271E000032
:101CD000111C0000111C00002D1F0000111C000031
:101CE000391E0000111C00004B1E0000BD1E00002C
:101CF000D71E0000111C0000EF1E0000151F000081
:101D0000082B85D15F4B5A4A1B688021C5F30746D3
:101D10001170E4B22D0E002BAAD02A46314620467F
:101D20009847A5E7092B7FF473AF2A0E504B00F0BC
:101D30001F8190211970544B1B68C5F30746E4B20C
:101D4000D5B2002BE9D193E70A2B7FF461AF4F4B5B
:101D5000474A1B68A021D9E70B2B7FF459AF4C4BA6
:101D6000434A1B68B021D1E7F02801D9F728A3D155
:101D7000FFF748FE474B404A19884048464C1170CF
:101D80000D0A3B4A0570246800201880F023137068
:101D9000002C00F0E68041480122A047012038E7EE
:101DA0000C2B7FF435AF3E4B314A1B68C0211170BC
:101DB000E4B2C5F30746002B3FF459AF3146204645
:101DC0002D0E984754E70D2B7FF422AF354B284A50
:101DD0001B68D0211170E4B2C5F30746002BEDD18A
:101DE00045E7F7283FF668AFF02804D0294B1B8859
:101DF000002B3FF40DAFFFF705FE002009E72A4B4B
:101E00001A68002A00F08F806B0C03F47E53C5F330
:101E100006402E0C1843F6B29047154BE4B283F8F7
:101E200000802D0E24E7214B1B68C5F30746002BCD
:101E3000F3D030469847F0E71D4B1B68002B00F0AD
:101E4000A9809847C5F30746E7E71A4B1B68002BA4
:101E5000F7D1194B1B68002B65D0FA209847C5F3C2
:101E60000746DAE76C95FF1FC895FF1F9495FF1F83
:101E7000F096FF1FC995FF1FCA95FF1FCB95FF1F47
:101E80005D95FF1F8C95FF1F9095FF1FC495FF1F49
:101E90008895FF1FEE96FF1FB495FF1FCC95FF1F7F
:101EA0009895FF1F7C95FF1FA095FF1FA495FF1F0E
:101EB0008095FF1FA895FF1F9C95FF1F3C4B1B683B
:101EC000002BBED13B4B1B68002B2CD0FB2098472E
:101ED000C5F30746A1E7384B1B68002BB1D1354B42
:101EE0001B6803B3FC209847C5F3074695E7334BBF
:101EF0001B68002BA5D12F4B1B68A3B1FE20984770
:101F0000C5F3074689E72E4B1B68C5F30746002B30
:101F10008FD182E72B4B1B68002B92D1254B1B687E
:101F20000BB1FF209847C5F3074676E7264B1B68A1
:101F3000002B86D1F7E7FFF765FDC5F30740FFF7F4
:101F400061FD280EFFF75EFD002062E6FFF75AFDF7
:101F5000C5F30740FFF756FD072E7FF40BAF280EA1
:101F600006E71A4B1B68F3B119489847012050E661
:101F700080211970174B1B68E4B2C5F30746A3B163
:101F8000314620461546984772E6C5F30746E4B247
:101F90002D0E6DE6074B1B68002BC4D0F820984728
:101FA000C5F3074639E7012033E61D4660E600BF6A
:101FB0008495FF1F9C95FF1FAC95FF1F7895FF1F11
:101FC000BC95FF1FB895FF1FC095FF1FB095FF1F61
:101FD000CC95FF1F8C95FF1F38B50F4C206878B14A
:101FE00043880288C11801339A420D7A02D943808E
:101FF000284638BDFFF7DEFC00232360284638BDA5
:10200000064B1B782BB10220FEF7E4FF206000286E
:10201000E6D14FF0FF35EBE7F496FF1F5D95FF1F0C
:1020200010B5094C206818B143881844007A10BDD7
:10203000064B1B782BB10220FEF7CCFF2060002856
:10204000F2D14FF0FF3010BDF496FF1F5D95FF1FDA
:10205000084B094A1B6810B554881BB11A885B8865
:10206000D31A1C440CB1204610BD00F029F92046BB
:1020700010BD00BFF496FF1F6095FF1F0B4B1B7830
:102080009BB110B50A4C206848B1FFF793FC0023C0
:1020900002202360FEF79EFF30B1FFF78BFC022089
:1020A000FEF798FF0028F8D110BD70475D95FF1F1F
:1020B000F496FF1F2DE9F04FDFF8EC9083B001227A
:1020C00089F80020019179B3384FDFF8E480019D51
:1020D000384EDFF8E4A083463968A1B3B1F802E0D6
:1020E000CEF1400CAC4528BFAC460EEB0C040022F0
:1020F000A4B23270A5EB0C054C8001F10802BCF1D2
:10210000000F0AD00EF1FF3E7244DC441BF8014B75
:1021100002F8014FDC45F9D14C883F2C0BD8052241
:102120008AF80020002DD7D10198002389F80030CB
:1021300003B0BDE8F08F40220A800320FEF7C2FF03
:1021400000223A60EBE798F800202AB34AF2F9241B
:1021500008E0013C19D03278BAB900F0B1F898F82B
:102160000020CAB10320FEF757FF0728F1D84FF02F
:10217000010389F80030FFF7FDFB014638600028B5
:10218000ACD1013C89F80000E5D101234FF0FF30CC
:10219000337003B0BDE8F08F00234FF0FF3089F8B3
:1021A000003003B0BDE8F08FF996FF1FFC96FF1FCB
:1021B0005D95FF1FF896FF1F1097FF1F00B583B0B6
:1021C000034601210DF107008DF80730FFF772FF7C
:1021D00003B05DF804FB00BF38B50E4D0E4C286807
:1021E0000123237028B140880023C0F140002370F0
:1021F00038BD0A4B1B7813B90020207038BD03206E
:10220000FEF70AFF0728F7D8FFF7B4FB286000287D
:10221000E9D1F1E7FC96FF1FF996FF1F5D95FF1FBF
:10222000F8B5114B1B788BB1104E114D3468012756
:102230002F7064B10F4B00271F70638823802146E5
:102240000320FEF73FFF376000232B70F8BDFFF738
:1022500091FB084B014620B103201C70FEF732FFB2
:10226000F2E71F70F0E700BF5D95FF1FFC96FF1FB0
:10227000F996FF1F1097FF1F38B50E4B1B7853B907
:102280000D4C216841B103F0FF054B880B80032002
:10229000FEF718FF256038BDFFF76CFB014620B143
:1022A000BDE838400320FEF70DBF044B01221A7031
:1022B00038BD00BFF996FF1FFC96FF1F1097FF1F48
:1022C0002DE9F843324E337863B1324F3A784AB948
:1022D0000122D9073A7043D49A0726D400225B071B
:1022E0003A7001D4BDE8F8832B4B1A68002AF9D064
:1022F000EFF30582002AF5D1EFF3108572B6186866
:1023000000283AD0254C2178002936D142691A603C
:1023100001232370002A37D0916105B962B60025E8
:102320008368457798472570DCE7DFF8748098F874
:102330000020002AD2D00025DFF868902B4659F8FB
:102340002340236820461B690135984708B123695B
:10235000984798F80020EBB29A42F0D83378BDE75E
:10236000FFF776FE68B9104B1B780BB93378B3E7EB
:10237000337803F0FE033370AEE7002DB2D162B6BE
:10238000B0E700F041F8EEE7084B1A60C5E700BF80
:10239000808CFF1F1197FF1F1497FF1F2097FF1FAF
:1023A0003497FF1F2897FF1F209400002497FF1FDA
:1023B00070B5EFF3108272B60C4C206880B10C4EF1
:1023C00000254369236073B19D6102B962B68368D9
:1023D00045779847EFF3108272B620680028F0D155
:1023E00002B962B670BD3360EFE700BF1C97FF1FF4
:1023F0001897FF1FFFF7DCBF024A13680133136011
:10240000704700BF6C94FF1F704700BF10B584B0C9
:1024100072B6174A702441200F2180231470D071A6
:102420009171137013781B06FCD5906862B6114B3E
:10243000114C984238BF00EB800001A938BF400022
:102440000A22FEF7EFFC01A92046002311F8012B18
:1024500001333AB10A2B20F8022FF7D1162323704B
:1024600004B010BD5B00DBB2237004B010BD00BF30
:102470000000024080969800448DFF1F81F00041CB
:1024800002E000BF83F0004330B54FEA41044FEA59
:10249000430594EA050F08BF90EA020F1FBF54EAF4
:1024A000000C55EA020C7FEA645C7FEA655C00F090
:1024B000E2804FEA5454D4EB5555B8BF6D420CDD61
:1024C0002C4480EA020281EA030382EA000083EAE4
:1024D000010180EA020281EA0303362D88BF30BD84
:1024E00011F0004F4FEA01314FF4801C4CEA1131DA
:1024F00002D0404261EB410113F0004F4FEA033339
:102500004CEA133302D0524263EB430394EA050FC3
:1025100000F0A780A4F10104D5F1200E0DDB02FA32
:102520000EFC22FA05F2801841F1000103FA0EF2C6
:10253000801843FA05F359410EE0A5F120050EF18C
:10254000200E012A03FA0EFC28BF4CF0020C43FABD
:1025500005F3C01851EBE37101F0004507D54FF0CA
:10256000000EDCF1000C7EEB00006EEB0101B1F51A
:10257000801F1BD3B1F5001F0CD349085FEA300060
:102580004FEA3C0C04F101044FEA445212F5800F6B
:1025900080F09A80BCF1004F08BF5FEA500C50F108
:1025A000000041EB045141EA050130BD5FEA4C0CEB
:1025B000404141EB0101013C28BFB1F5801FE9D248
:1025C00091F0000F04BF01460020B1FA81F308BF6B
:1025D0002033A3F10B03B3F120020CDA0C3208DD37
:1025E00002F1140CC2F10C0201FA0CF021FA02F112
:1025F0000CE002F11402D8BFC2F1200C01FA02F182
:1026000020FA0CFCDCBF41EA0C019040E41AA2BFA6
:1026100001EB0451294330BD6FEA04041F3C1CDA6E
:102620000C340EDC04F11404C4F1200220FA04F08E
:1026300001FA02F340EA030021FA04F345EA030138
:1026400030BDC4F10C04C4F1200220FA02F001FAFA
:1026500004F340EA0300294630BD21FA04F029467C
:1026600030BD94F0000F83F4801306BF81F4801115
:102670000134013D4EE77FEA645C18BF7FEA655C88
:1026800029D094EA050F08BF90EA020F05D054EA5A
:10269000000C04BF1946104630BD91EA030F1EBF5F
:1026A0000021002030BD5FEA545C05D14000494163
:1026B00028BF41F0004130BD14F580043CBF01F556
:1026C000801130BD01F0004545F0FE4141F470013C
:1026D0004FF0000030BD7FEA645C1ABF1946104617
:1026E0007FEA655C1CBF0B46024650EA013406BF18
:1026F00052EA033591EA030F41F4002130BD00BFD7
:1027000090F0000F04BF0021704730B54FF4806493
:1027100004F132044FF000054FF0000150E700BF14
:1027200090F0000F04BF0021704730B54FF4806473
:1027300004F1320410F0004548BF40424FF0000160
:102740003EE700BF42004FEAE2014FEA31014FEAA3
:1027500002701FBF12F07F4393F07F4F81F06051F2
:10276000704732F07F4208BF704793F07F4F04BF3D
:1027700041F40021704730B54FF4607401F000451A
:1027800021F000411CE700BF50EA010208BF70477A
:1027900030B54FF000050AE050EA010208BF70476B
:1027A00030B511F0004502D5404261EB41014FF4D4
:1027B000806404F132045FEA915C3FF4D8AE4FF0DC
:1027C00003025FEADC0C18BF03325FEADC0C18BFBF
:1027D000033202EBDC02C2F1200300FA03FC20FA10
:1027E00002F001FA03FE40EA0E0021FA02F114445D
:1027F000BDE600BF4FF0FF3C06E000BF4FF0010C0C
:1028000002E000BF4FF0010C4DF804CD4FEA410C3F
:102810007FEA6C5C4FEA430C18BF7FEA6C5C1BD00C
:1028200001B050EA410C0CBF52EA430C91EA030F8D
:1028300002BF90EA020F0020704710F1000F91EAEA
:10284000030F58BF994208BF90422CBFD8176FEAB8
:10285000E37040F0010070474FEA410C7FEA6C5C86
:1028600002D150EA013C07D14FEA430C7FEA6C5C8D
:10287000D6D152EA033CD3D05DF8040B704700BFB9
:102880008446104662468C461946634600E000BF07
:1028900001B5FFF7B7FF002848BF10F1000F01BDD9
:1028A0004DF808EDFFF7F4FF0CBF012000205DF8A4
:1028B00008FB00BF4DF808EDFFF7EAFF34BF012029
:1028C00000205DF808FB00BF4DF808EDFFF7E0FFC2
:1028D00094BF012000205DF808FB00BF4DF808ED13
:1028E000FFF7CEFF94BF012000205DF808FB00BF7A
:1028F0004DF808EDFFF7C4FF34BF012000205DF85C
:1029000008FB00BF4FEA410C7FEA6C5C02D150EA41
:10291000013C0AD14FEA430C7FEA6C5C02D152EAD7
:10292000033C02D14FF0000070474FF001007047A8
:102930002DE9F04F01F10B06162E83B0044624D882
:10294000102900F2BA8000F0A3FA10261822022003
:10295000B54F3A44A2F1080153688B4200F0BA80A7
:102960005A68D96822F003021A449D68E9608D60B4
:10297000516841F001012046516003F1080500F063
:102980008DFA284603B0BDE8F08F36F0070600F157
:102990009480B14200F2918000F07AFAB6F5FC7FA3
:1029A000C0F09A81730A00F08F80042B00F26F81CF
:1029B000B30903F1390003F1380CC3009A4F3B44CB
:1029C000A3F108055B689D4206D10CE0002980F266
:1029D0002781DB689D4206D05A6822F00302911BD2
:1029E0000F29F3DD60463D69DFF840C265457CD0C4
:1029F0006A6822F00302931B0F2B00F37B81002BEC
:102A0000C7E904CC80F26C81B2F5007F80F01A81B6
:102A1000D308796801334FEA521E012202FA0EF2FE
:102A20000A4357F833E0C5F808E007EBC30108395B
:102A3000E9607A6047F83350CEF80C5083100121DA
:102A40009940914257D8114206D120F00300490025
:102A5000114200F10400FAD007EBC0094D4686464A
:102A6000D5F80C80454508D11DE1002B80F224816A
:102A7000D8F80C80454500F01681D8F8042022F0E3
:102A80000302931B0F2BF0DD2046D8E9025408EB1C
:102A9000060146F00106C8F80460EC60A56043F04A
:102AA0000104C7E90411C1E902CC4C6048F80230C6
:102AB00000F0F4F908F1080502E00C23236000257A
:102AC000284603B0BDE8F08F4FF4007340204FF06C
:102AD0003F0C73E7D3689A4208BF02307FF440AFDF
:102AE0003D69DFF848C1654582D17A6883100121CC
:102AF00099409142A7D9BD686B6823F003094E4500
:102B000003D8A9EB06030F2B7ADCDFF824B1494B7D
:102B1000DBF800201B680132334405EB090A00F0A2
:102B2000338103F580530F3323F47F6828F00F08B7
:102B30004146204600F024FE411C024600F0F3808E
:102B4000824500F2EE803C4B19684144196008460A
:102B500000F04E81DBF80010019301311BBFA2EBA6
:102B60000A010918CBF80020196012F0070B00F0D9
:102B70001781CBF108010A44CBF58051904408310C
:102B8000A1EB0801C1F30B0A51462046009200F068
:102B9000F7FD421CDDE9002300F04F81801A00EBB5
:102BA0000A081968BA6048F001005144BD425060FB
:102BB000196000F02981B9F10F0F40F22781686890
:102BC000A9F10C0C2CF0070C00F0010040EA0C00FD
:102BD00068604FF0050E05EB0C00BCF10F0FC0E96B
:102BE00001EE00F2328150681546144B1A688A4291
:102BF00038BF1960124B1A688A4238BF196094E0D6
:102C0000AA1943F0010346F001066E602046BA603F
:102C1000536000F043F90835284603B0BDE8F08F53
:102C2000D9681A44A1E600BF5C8DFF1F648DFF1FA9
:102C30006491FF1F6897FF1F3897FF1F6097FF1F62
:102C40006497FF1FB2F5206F4FEA522363D3142B12
:102C500000F2B78003F15C01C9005B3307EB010EA2
:102C60007958AEF1080E8E4500F091804B6823F044
:102C70000303934202D989688E45F7D1D1F80CE05D
:102C80007A68C5E9021ECEF80850CD60D6E6142B4E
:102C900059D9542B00F29D80330B03F16F0003F1DF
:102CA0006E0CC3008AE60EF1010E1EF0030F05F153
:102CB00008057FF4D5AE51E0424445465368D8F844
:102CC0000C1043F00103536055F8083F2046D960CB
:102CD0008B6000F0E3F8F3E6F00806F1080237E64F
:102CE0002A442046536843F001035360083500F03E
:102CF000D5F8E5E6A919204646F0010643F001049F
:102D00006E60C7E90411C1E902CC4C60AB5000F021
:102D1000C5F80835D4E6930903F13901C900383301
:102D20009CE7BD425FD0BD68686820F00308464557
:102D3000A8EB060302D80F2B3FF762AF204600F046
:102D4000ADF80025BCE603F15C0003F15B0CC300A9
:102D500034E659F808394B4540F0968010F0030FDF
:102D600000F1FF30F5D17B6823EA01037B60490065
:102D700099423FF6C0AE19B9BDE649000EF1040E06
:102D80001942FAD0704667E603F11008D0E69A10AF
:102D90004FF001087B6808FA02F21A437A6070E784
:102DA00002EB08014942C1F30B0A5146204600924A
:102DB00000F0E6FC431CDDE900237FF4EFAEDA46C9
:102DC000EFE6542B25D8130B03F16F01C9006E33C6
:102DD00044E7B3F5AA7F25D8F30B03F1780003F19C
:102DE000770CC300EAE5294B186840441860B1E647
:102DF000CAF30B0CBCF1000F7FF4ACAEBD68C84445
:102E000048F001006860F0E61546EEE601235360E5
:102E100094E7B3F5AA7F23D8D30B03F17801C90057
:102E200077331BE740F25452934223D8B30C03F19B
:102E30007D0003F17C0CC300C0E5ABF1080BD84466
:102E4000A8EB02084FF0000AABE605F108012046A6
:102E5000009300F0C3FDBD68009B68681968C4E674
:102E600040F254518B420BD8930C03F17D01C90001
:102E70007C33F3E64FF47E737F204FF07E0C9DE5AC
:102E80004FF47E717E23E9E67B6870E73897FF1F79
:102E9000014800F0CBBC00BFAC98FF1F014800F018
:102EA000C7BC00BFAC98FF1F2DE9F84F174600299B
:102EB00000F098800C4607F10B058046FFF7E8FF0D
:102EC000162D54F8041C5BD810252A46AF425CD856
:102ED00021F003069642A4F1080962DABC4BD3F84C
:102EE00008C009EB0600844500F09780D0F804C0C4
:102EF0002CF0010303445B68DB0768D42CF0030C5F
:102F000006EB0C03934247DACB0710D454F8083C85
:102F1000A9EB030ADAF8043023F003018C44B4442B
:102F2000944580F211817318934280F2E88039460B
:102F30004046FFF7FDFC0746E0B154F8043C23F09F
:102F400001034B44A0F10802934200F0D280321FEB
:102F5000242A00F2F580132A00F2AC8003462246B0
:102F6000116819605168596092689A60214640461C
:102F700000F034FD4046FFF791FF3846BDE8F88F7A
:102F800025F00705002D2A46A0DA0C23C8F80030EA
:102F900000273846BDE8F88F1E46D0E90223D360EB
:102FA0009A60731B0F2B22D8D9F8043003F0010369
:102FB00033434E44C9F80430736843F0010373602F
:102FC00040462746FFF76AFF3846BDE8F88FC90735
:102FD000ADD454F8083CA9EB030ADAF8041021F048
:102FE0000301A0E7BDE8F84F1146FFF7A1BCD9F8EF
:102FF000042009EB050102F001024E4443F00103F5
:103000002A43C9F804204B60736843F00103083178
:103010007360404600F0E2FCD2E7DCF8040020F0E8
:10302000030B06EB0B0C05F1100084454DDAC907C4
:103030003FF57DAF54F8081CA9EB010ADAF804103B
:1030400021F003018B44B34458453FF76CAF57461A
:10305000DAF80C1057F8080F321F242AC160886074
:1030600000F2DB80132A40F2D6802168CAF80810EB
:103070006168CAF80C101B2A00F2DF8008340AF1DC
:1030800010022168116061685160A16891600AEBCB
:103090000501ABEB050242F0010299604A60DAF8E3
:1030A000043003F001032B434046CAF80430FFF715
:1030B000F5FE6EE723680360636843601B2A68D8E7
:1030C00004F1080200F108034AE709EB05029A60DF
:1030D000ACEB050343F00103536054F8043C03F0E8
:1030E00001032B43404644F8043CFFF7D7FE274634
:1030F0004FE750F8043C23F003031E4451E75746C2
:10310000DAF80C1057F8080F321F242AC1608860C3
:103110004CD8132A48D92168CAF808106168CAF83F
:103120000C101B2A56D808340AF110021E462368D8
:10313000136063685360A3689360D1463C4630E7F0
:10314000214600F0E5F911E7D0E902135746CB60BC
:10315000996057F8081FDAF80C30CB60321F242A28
:1031600099602DD8132A29D92368CAF808306368D2
:10317000CAF80C301B2A42D808340AF1100322681E
:103180001A6062685A60A2689A606646D1463C46F8
:1031900007E7A3688360E368C360242A26D004F1AC
:1031A000100200F11003DBE63A46BFE7214638463D
:1031B0001E46D14600F0ACF93C46F2E63B46DEE75F
:1031C000214638466646D14600F0A2F93C46E8E67C
:1031D0005C8DFF1FA168CAF81010E168CAF81410CE
:1031E000242A20D010340AF118029FE723690361D2
:1031F0006169416104F1180200F11803B0E6A368A7
:10320000CAF81030E368CAF81430242A21D01034E8
:103210000AF11803B3E73A4633E72146384600F08F
:1032200077F9164B33E72269CAF818206269CAF8A1
:103230001C2018340AF1200278E7A168CAF810109F
:10324000E168CAF81410242A0DD010340AF11802CB
:1032500017E72369CAF818306369CAF81C301834B4
:103260000AF120038BE72269CAF818206269CAF8BC
:103270001C2018340AF1200203E700BF5C8DFF1FF9
:10328000024A0349034800F0EDB800BF6C91FF1FEC
:10329000155F0000E892FF1F0C4B4168994210B582
:1032A000044601D002F036FEA168094B994202D0D3
:1032B000204602F02FFEE168064B994204D02046DA
:1032C000BDE8104002F026BE10BD00BF6C97FF1F86
:1032D000D497FF1F3C98FF1F2DE9F8432A4C2B4B36
:1032E0002B48DFF8B090DFF8B0802C4F1860002535
:1032F00004230822294604F15C00294E6566C4E9CE
:103300000253C4E90055C4E90455A56100F07CF9F5
:10331000244B63670822294604F1C400C4E9074925
:10332000C4E90987C4E91A55C4E91E55C4F8CC504C
:103330002567C4F88050E66200F066F91A4BC4F8BD
:10334000DC30294604F16803082204F59670C4F8BD
:103350008430C4E92298C4E92476C4E93455C4E928
:103360003855C4F83451C4F8D850C4F8E85000F0C7
:103370004BF904F1D003C4E93C98C4E93E76C4F8A3
:10338000EC30BDE8F88300BF6C97FF1FA498FF1FC7
:10339000813200005161000075610000B5610000DC
:1033A000D5610000090001001200020010B50446BA
:1033B0000A4800F03BFA636B23B9094B094A1B68C2
:1033C000626323B1BDE81040044800F031BAFFF752
:1033D00083FFBDE81040014800F02ABAB098FF1FF3
:1033E000A498FF1F99320000014800F01FBA00BFE7
:1033F000B098FF1F014800F01BBA00BFB098FF1F34
:10340000F0B5ADF5057D04AF009313464FF400729F
:103410000E460392394603AA054600F079F988B1B1
:1034200004460246039B3146284600F0BBF9BC42E5
:10343000039004D02846214600F0D0FA03980DF5F9
:10344000057DF0BD4FF0FF30F9E700BF10B4044C2C
:1034500084461346206810BC0A466146FFF7D0BF79
:103460000894FF1F2DE9F84380460F4616464FF09B
:103470000009D6E90154013D11D4A389012B05F1BE
:10348000FF3508D9B4F90E300133214603D0404648
:10349000B84749EA00096B1C04F16804EDD13668AD
:1034A000002EE6D14846BDE8F88300BF032A10B5D8
:1034B00016D940EA01039B0724D104460B4619465E
:1034C0002046D1F800E0D0F800C0F44504F104042F
:1034D00003F1040316D1043A032A20461946EED814
:1034E000541E9AB1421E013901E0C3180CD012F8E3
:1034F00001EF11F801CFE645A4EB0203F5D0AEEBE6
:103500000C0010BD541EEDE7184610BD104610BD4E
:1035100088420DD98B1883420AD900EB020CBAB14C
:10352000624613F801CD02F801CD9942F9D17047F6
:103530000F2A0ED8034602F1FF3C4AB10CF1010CF0
:10354000013B8C4411F8012B03F8012F6145F9D19F
:10355000704740EA01039B0750D1A2F1100370B5F8
:1035600001F1200C23F00F0501F1100E00F1100401
:10357000AC441B095EF8105C44F8105C5EF80C5C0F
:1035800044F80C5C5EF8085C44F8085C5EF8045C87
:1035900044F8045C0EF1100EE64504F11004E9D184
:1035A000013312F00C0F01EB031102F00F0400EBDA
:1035B000031327D0043C24F003064FEA940C1E4466
:1035C0001C1F8E465EF8045B44F8045FB442F9D1D8
:1035D0000CF1010402F0030203EB840301EB84010C
:1035E00002F1FF3C4AB10CF1010C013B8C4411F893
:1035F000012B03F8012F6145F9D170BD02F1FF3CA9
:1036000003469BE72246EBE7830730B548D0541EBC
:10361000002A3FD0CAB2034601E0013C3AD303F886
:10362000012B9D07F9D1032C2DD9CDB245EA0525F3
:103630000F2C45EA054536D9A4F1100222F00F0CF3
:1036400003F1200EE6444FEA121C03F1100242E996
:10365000045542E9025510327245F8D10CF10102CD
:1036600014F00C0F03EB021204F00F0C13D0ACF1AA
:10367000040323F003030433134442F8045B93422E
:10368000FBD10CF003042CB1C9B21C4403F8011B9C
:103690009C42FBD130BD64461346002CF4D1F9E7BF
:1036A00003461446BFE71A46A446E0E740EA010392
:1036B0009B0730B501D1032A0FD8844601F1FF3EA4
:1036C00007E01EF8011F03F8011B541EC1B19C4600
:1036D00022466346002AF4D130BD0B468446194683
:1036E00053F8045BA5F1013424EA050414F0803F8B
:1036F000E4D1043A032A4CF8045B1946EFD8DDE71D
:103700009444002CE8D003F8011B6345FBD130BD85
:1037100030B5146815469BB01A4609B1002C19D172
:1037200000214FF42273ADF80C30009104914FF654
:10373000FF7302910591ADF80E3069461E9B00F0B3
:1037400069FA002813DB009B286000221A70049895
:103750001BB030BD4FF4C16300910491ADF80C3043
:103760002146E4DA8B23036000201BB030BD00202B
:10377000EEE700BF014B93F8280170477891FF1FD7
:1037800038B5074D0022044608462A60FDF712FBB3
:10379000431C00D038BD2B68002BFBD0236038BD04
:1037A000B898FF1F38B50C46084D84461146204690
:1037B0001A4600232B606446FDF732F8431C00D004
:1037C00038BD2B68002BFBD0236038BDB898FF1F95
:1037D000014B1868704700BF0894FF1F70B50D4E6D
:1037E0000D4D761BB61006D0002455F8043B01346D
:1037F0009847A642F9D1094E094D761B06F044F8C8
:10380000B61006D0002455F8043B01349847A64270
:10381000F9D170BD9498000094980000A49800001D
:1038200094980000704700BF704700BF704700BF0A
:10383000704700BFFFFFFFFFFFFFFFFFFFFFFFFF1E
:1038400090F800F06DE9024520F007016FF0000CE0
:1038500010F0070491F820F040F049804FF0000488
:103860006FF00700D1E9002391F840F000F1080063
:1038700082FA4CF2A4FA8CF283FA4CF3A2FA8CF39B
:103880004BBBD1E9022382FA4CF200F10800A4FA02
:103890008CF283FA4CF3A2FA8CF3E3B9D1E9042356
:1038A00082FA4CF200F10800A4FA8CF283FA4CF38D
:1038B000A2FA8CF37BB9D1E9062301F1200182FA47
:1038C0004CF200F10800A4FA8CF283FA4CF3A2FA4D
:1038D0008CF3002BC6D0002A04BF04301A4612BA5B
:1038E000B2FA82F2FDE8024500EBD2007047D1E95E
:1038F000002304F00305C4F100004FEAC50514F0ED
:10390000040F91F840F00CFA05F562EA05021CBFBD
:1039100063EA050362464FF00004A9E7024B13B1C6
:10392000024800F005B87047000000007D6200000A
:10393000002301461A46184602F03EBDF8B5244F52
:103940000C460646FFF7A4FABB685D68C4F57E61C5
:103950000F3125F003054B1923F47F6323F00F0388
:10396000A3F58054B4F5805F07DB00213046FFF7F4
:1039700007FFBB682B44984204D03046FFF78EFA0D
:103980000020F8BD61423046FFF7FAFE01300DD04D
:10399000104ABB682D1B45F001055D601368304679
:1039A0001B1B1360FFF77AFA0120F8BD0021304697
:1039B000FFF7E6FEBA68831A0F2BDEDD43F0010342
:1039C0005360054B03491B68C01A0860D5E700BF68
:1039D0005C8DFF1F3897FF1F6491FF1F002961D086
:1039E000F8B50C460646FFF753FA54F8042C7B4F03
:1039F000A4F1080522F0010105EB010CB868DCF820
:103A00000430604523F0030300F08B80D207CCF82C
:103A1000043032D454F8082CAD1A1144AA6807F1C6
:103A2000080082426AD00CEB0304D4F804E0EC688E
:103A3000D4601EF0010FA26000F0978041F00103F6
:103A40006B60CCF80010B1F5007F35D27868CB08F8
:103A50000122490901338A40024357F833107A6042
:103A600007EBC302083AC5E9021247F83350CD60AC
:103A70003046BDE8F840FFF711BA0CEB030252687C
:103A8000D00710D4194407F10800DCF8083083424D
:103A900073D0DCF80C20DA60936041F001036B60B6
:103AA0006950D0E7704741F00103B1F5007F44F859
:103AB000043CCCF80010C9D3B1F5206F4FEA512374
:103AC00048D28B0903F1390003F13802C300F8181A
:103AD000FB580838984259D05A6822F003028A42AB
:103AE00002D99B689842F7D1D868C5E90230856051
:103AF000DD603046BDE8F840FFF7D0B90CEB0302BB
:103B00005268D20763D40B44DCE90212CA609160A8
:103B100043F001026A603046EB50BDE8F840FFF721
:103B2000BDB90B44D10707D454F8082CAD1A13447F
:103B3000D5E90212CA60916043F001026A60284A26
:103B4000BD6012689A4293D8264B30461968FFF739
:103B5000F5FE8DE7142B0AD9542B1FD80B0B03F15C
:103B60006F0003F16E02C300B1E719448DE703F162
:103B70005C0003F15B02C300A9E741F00103C7E960
:103B80000455C5E902006B60695071E779689210CD
:103B9000012404FA02F20A437A60A6E7B3F5AA7F89
:103BA00006D8CB0B03F1780003F17702C3008EE750
:103BB00040F25452934206D88B0C03F17D0003F17E
:103BC0007C02C30083E74FF47E737E227FE741F0DF
:103BD00001036B60CCF800104AE700BF5C8DFF1F4B
:103BE0006891FF1F6897FF1F82B049B15AB16BB14E
:103BF00013780B601278101E18BF012002B07047B6
:103C000001A9002AF3D1104602B070476FF00100FD
:103C1000F4E700BF2DE9F04FD9B00C460C91904667
:103C20000E93824602F0E8FA036819931846FFF7EC
:103C300007FE08221790002128A8FFF7E5FCA389BA
:103C40001F0603D52369002B00F03F8700232FAA0E
:103C50000024CDE92D33CDE91A33CDE91C3313937C
:103C6000189309930023CDE914342C9291464446CD
:103C7000A046784BD3F8E450FFF77CFD034628A814
:103C80000090424624A95046A847002800F0B08082
:103C9000C0F2A680249A252A034601D09844E8E77A
:103CA000B8EB0407064640F0A78000234FF0FF3230
:103CB0008DF887309B460B9308F1010898F8003087
:103CC00008922B25202608F10108A3F120025A2A88
:103CD00000F2C280DFE812F0E602C000C000E1029C
:103CE000C000C000C0006A00C000C000080284021A
:103CF000C0001302C702C000C2025B005B005B0091
:103D00005B005B005B005B005B005B00C000C00011
:103D1000C000C000C000C000C0004301C000890155
:103D20001D02430143014301C000C000C000C000A8
:103D30001802C000C0009602C000C000C000B1015F
:103D4000C000A902C000C000DD06C000C000C00065
:103D5000C000C000C000C000C0004301C000890115
:103D6000E2014301430143017702E2017F00C00009
:103D70008902C0005F02DA0632027F00C000B10192
:103D80007C00B406C000C000B806C0007C00A3F1EF
:103D90003002002118F8013B01EB810102EB4101E7
:103DA000A3F13002092AF5D90B918EE7504602F0B3
:103DB00023FA43681C931846FFF742FD1D900746FF
:103DC000504602F019FA83681A93002F40F0B1852B
:103DD00098F8003077E798F800304BF0200B72E746
:103DE0000822002128A8FFF70FFC0123984440E790
:103DF000B8EB0407064611D02E9B3B442E932D9B17
:103E00000133072BC9E900472D9319DC09F1080993
:103E1000099B3B440993002E7FF447AF2E9B002B58
:103E200041F001820C9BB3F90C3013F0400F099B59
:103E300018BF4FF0FF330993099859B0BDE8F08FD0
:103E40000C992CAA504603F093FB0028EAD10DF1FF
:103E5000BC09DDE77891FF1F1093002BDED0002214
:103E60008DF8FC3001238DF8872007930D920A937B
:103E700008921292169211923FAC1BF0020302D0EC
:103E80000799023107911BF084010F9105D10B991D
:103E900007980F1A002F00F382832E9E82B1012211
:103EA000C9F804202D9A013201360DF18701072A45
:103EB0002E962D92C9F8001000F3BD8309F1080970
:103EC00083B12D9B22AA01330236C9F80020072BAB
:103ED0004FF002022E962D93C9F8042000F3C08300
:103EE00009F108090F9B802B00F08182089B0A9A38
:103EF0009F1A002F00F3BC821BF4807F40F01E82CB
:103F00000A9BC9F804301E442D9BC9F800400133B8
:103F1000072B2E962D9300F3378309F108091BF028
:103F2000040F05D00B9B079A9C1A002C00F3A48366
:103F3000099B0B9A07998A42ACBF9B185B1809939F
:103F4000002E40F0CA8200232D930D9B1BB10D99CA
:103F50005046FFF743FD0DF1BC09444688E6109337
:103F60000E9B073323F00701F1E80223CDE9142368
:103F7000DDE9142323F000450E9116461046B34B9D
:103F800029464FF0FF32FEF7BDFC002840F0FC84CC
:103F9000AE4B304629464FF0FF32FEF795FC002825
:103FA00040F0F284DDE9140100220023FEF782FCD8
:103FB000002841F038809DF88720A54CA54B2BF0B8
:103FC000800B10994729C8BF1C46002303210D937D
:103FD00007910A910893129316931193002A3FF4C4
:103FE0004CAF079B0133079347E7432B109303D054
:103FF0001BF0100F00F051850E9E082200212AA808
:104000003FACFFF701FB2AAB56F8042B2146504684
:1040100002F09EF9034601330A9001F0C3820A9B25
:104020000E9623EAE373079300228DF887200D9202
:1040300008921292169211921FE70E9F109357F852
:10404000044B00238DF88730002C00F04D85109B29
:10405000532B00F0D4861BF01003119340F0CF8651
:10406000089B5D1C01F0CC8011991A46204602F095
:104070001FF90D90002801F051830D9B11999DF8B7
:1040800087200E971B1B0A9323EAE373079373237E
:104090000891129116910D9110939FE71BF0200F3C
:1040A00010930E9B3CD0073323F007031A461146AA
:1040B0005B6851F8082B0E911946002BC0F2018461
:1040C000089B013300F0A88252EA01032BF080051F
:1040D00040F0A382089B002B40F0A482AB46002353
:1040E00008930A9358ACFFE00E9B53F8042B0B92F5
:1040F000002A80F20C840B9A0E9352420B9298F88D
:1041000000304BF0040BDEE598F800304BF0080B64
:10411000D9E54BF0100B1BF0200F10930E9BC2D172
:104120001BF0100F40F0FE831BF0400F00F0F683F1
:1041300033F9042B0E93D1170B46BEE70E9B53F8B1
:10414000042B0E9347F63003ADF888307820424BAD
:1041500018934BF002050021022310900020089CC8
:104160008DF88700601C00F0A88052EA010025F05D
:10417000800B40F0A180002C40F09586002BAED142
:1041800015F001030A9300F0C78330238DF85F31E7
:104190000DF25F14A8E01BF0200F40F0E5831BF048
:1041A000100F40F086861BF0400F40F07F871BF415
:1041B000007F00F07E860E9B099953F8042B0E9326
:1041C0001170444654E598F80030682B03BF98F806
:1041D00001304BF4007B08F101084BF0400B72E515
:1041E00098F800308DF887506DE598F800306C2B0A
:1041F00003BF98F801304BF0200B08F101084BF099
:10420000100B60E510934BF0100B1BF0200100F039
:104210004A830E9B073323F00703596853F8082B92
:104220000E932BF48065002398E710934BF0100554
:1042300015F0200100F028830E9B073323F00703BD
:10424000596853F8082B0E93012387E7FFFFEF7F90
:10425000D8950000DC950000E895000098F8003043
:104260004BF0800B2FE5414611F8013B2A2B01F062
:104270007F82A3F13002092A884698BF002101F20B
:10428000768118F8013B01EB810102EB4101A3F1BA
:104290003002092AF5D9089117E598F800304BF05B
:1042A000010B10E59DF88730002B7FF491AD98F855
:1042B00000308DF8876006E55D46012B00F0AD818A
:1042C000022B58AC1FD1189802F00F031209C35CDF
:1042D00004F8013D42EA0172090952EA0103F3D1EF
:1042E00058AB1B1BAB460A930A9908989DF8872088
:1042F00081424FF00003B8BF01460D93079112931E
:10430000169311936AE602F00703D20842EA41725B
:10431000C908303352EA0106204604F8013DF2D1C3
:10432000E907DDD5302BDBD03023023804F8013C1F
:1043300058AB1B1AAB460A930446D5E7109B652B76
:1043400040F3DC80DDE9140100220023FEF7A8FA27
:10435000002800F0C8810123C9F804302D9BBD4A14
:10436000C9F8002001330136072B2E962D9300F358
:10437000398509F10809239B139A934280F2C2827E
:10438000179B199A1E44C9E900232D9B2E960133D1
:10439000072B2D9300F38D8309F10809139B5C1EF5
:1043A000002C7FF7BCAD102C2D9BAB4D40F35585F9
:1043B000324610270C9E05E009F10809103C102C2C
:1043C00040F34A8501331032072BC9E90057CDE984
:1043D0002D32F1DD2CAA3146504603F0C9F80028F1
:1043E00040F08380DDE92D320DF1BC09E6E70B9B3F
:1043F000079A9F1A002F7FF779AD102F2D9B964DAE
:1044000023DD324626460C9C04E0103F102F09F1B4
:10441000080918DD013310321021072BCDE92D32A8
:10442000C9F80050C9F80410EFDD2CAA2146504607
:104430000DF1BC0903F09CF8002856D1103F102F55
:10444000DDE92D32E6DC3446164601333E44072BC7
:10445000CDE92D36C9F80050C9F8047000F316856F
:10446000089B0A9A9F1A002F09F108097FF744ADAB
:10447000102F2D9B784D22DD324626460C9C04E001
:10448000103F102F09F1080917DD013310321021F8
:10449000072BCDE92D32C9F80050C9F80410EFDD23
:1044A0002CAA2146504603F063F8F0B9103F102FB4
:1044B000DDE92D320DF1BC09E7DC34461646013347
:1044C0003E44072BCDE92D36C9F80050C9F80470D9
:1044D00000F3CD8109F108090EE50C992CAA50468C
:1044E00003F046F800283FF42EAD0D9B002B3FF45F
:1044F00099AC0D995046FFF771FA93E4139B012B89
:1045000040F36E812D9FC9F8004001231F440136FE
:10451000072FC9F804302E962D9700F3D98109F1A1
:104520000809179B199A01371E44072FC9E9002370
:10453000CDE92D7600F3D98109F10809DDE91401EF
:1045400000220023FEF7ACF9002840F06781139B9E
:104550000137013B01341E44072FC9F800402D9755
:10456000C9F804302E9600F34C8109F108091B9B11
:10457000C9F8043001371E44072F26ABCDE92D764C
:10458000C9F800307FF7C9AC0C992CAA504602F04C
:10459000EFFF0028A9D12E9E0DF1BC09BFE4102F1A
:1045A000DDE92D212D4D27DDCDE91E381026D04621
:1045B000A2460C9C04E0103F102F09F1080916DDFB
:1045C00001321031072AC9E90056CDE92D21F2DD6B
:1045D0002CAA214640460DF1BC0902F0C9FF002873
:1045E00040F0F283103F102FDDE92D21E8DC544626
:1045F0001E9BC246DDF87C80C9F8005001327E184F
:10460000072ACDE92D26C9F8047000F3CC839DF864
:10461000872009F1080941E45D460A2A71F1000387
:1046200080F02983303201238DF85F21AB460A9355
:104630000DF25F1458E60C991E932CAA504602F016
:1046400097FF00287FF451AF2E9E1E9B0DF1BC09F1
:1046500036E400BF189600002C9600001C9600005F
:104660000C992CAA504602F083FF00287FF43DAF3E
:104670002E9E0DF1BC0935E4102C2D9BB84D1FDD8D
:10468000DDF830B0102704E0103C102C09F10809C7
:1046900016DD01331036072BC9E90057CDE92D3659
:1046A000F2DD2CAA594650460DF1BC0902F060FF1C
:1046B00000287FF41AAF103C102CDDE92D36E8DC21
:1046C00001332644072BC9E90054CDE92D367FF785
:1046D0002FAC0C992CAA504602F04AFF00287FF418
:1046E00004AF2E9E24E42399002940F32783119DD3
:1046F000139B9D42A8BF1D46002D0BDD2D9B013352
:104700002E44072BC9E900452E962D9300F3DD8634
:1047100009F10809119F002DA8BF7F1B002F00F38E
:10472000F481119B1BF4806F23440A9340F01482A0
:10473000239B139A934203DB1BF0010F00F0A58427
:10474000179A19991644C9E900122D9A2E9601322A
:10475000072A2D9200F3C68609F10809139AA518B5
:10476000D41A0A9BED1AA542A8BF2546002D0DDDDF
:10477000C9F800302D9BC9F8045001332E44072B93
:104780002E962D9300F3BE8609F10809002DA8BFCF
:10479000641B002C7FF7C3AB102C2D9B714D40F395
:1047A0005C83324610270C9E05E009F10809103C95
:1047B000102C40F3518301331032072BC9E9005705
:1047C000CDE92D32F1DD2CAA3146504602F0D0FE63
:1047D00000287FF48AAEDDE92D320DF1BC09E6E751
:1047E0001BF0010F7FF48EAE2D9FC9F8004001230E
:1047F0001F440136072FC9F804302E962D977FF7F6
:10480000B4AE0C992CAA504602F0B2FE00287FF4F8
:104810006CAEDDE92D760DF1BC09A8E6139B5C1E9C
:10482000002C7FF7A4AE102C4E4D40F34C83324643
:1048300010230C9E05E009F10809103C102C40F3F0
:10484000418301371032072FC9E90053CDE92D729A
:10485000F1DD2CAA3146504602F08AFE00287FF492
:1048600044AEDDE92D720DF1BC091023E5E70C998A
:104870002CAA504602F07CFE00287FF436AE2E9E15
:104880000DF1BC09FFF738BB15F0100360D115F02E
:10489000400200F073830E9850F8042B0E901946D6
:1048A00092B201235AE41BF0100368D11BF04002BE
:1048B00000F056830E9850F8042B0E90194692B2D1
:1048C000AFE4524261EB41015D462D20012346E4F5
:1048D0000C992CAA504602F04BFE00287FF405AE3E
:1048E000DDE92D760DF1BC091BE60C992CAA50468A
:1048F00002F03EFE00287FF4F8ADDDE92D760DF1E3
:10490000BC091BE61BF0010F3FF409AB38E50E9321
:1049100098F80030FFF7D7B958ACE5E41BF4007FF6
:1049200040F0BD8353F8042B0E93D1170B46FFF7CD
:10493000C4BB1A9B002B3FF44BAA1A9B1B78002B7D
:104940003FF446AA98F800304BF4806BFFF7BBB9F0
:104950000E9B53F8042B0E930123FFF7FFBB00BF00
:104960001C9600002C9600000E9B099853F8041B1F
:104970000E93C217C1E900024446FFF779B90E9BB6
:1049800053F8042B0E934CE4DDE9140102460B4668
:10499000FDF7B8FF002840F07586109B612B00F0F2
:1049A0005B85412B00F0AC85089B0133109B23F005
:1049B0002003079300F06384472B04D1089B002B4E
:1049C00008BF01230893DDE914010A46002A4BF4CD
:1049D0008073CDF83CB0C0F2E1859B4600231646BB
:1049E0001E9307460D93109B413B252B00F26783D6
:1049F000DFE813F0520465036503650349044E04C0
:104A00006503650365036503650365036503650366
:104A10006503650365036503650365036503650356
:104A20006503650365036503650365036503650346
:104A300065036503650365036503650349044E0467
:104A400010935D46FFF7F4BB1093B74B18931BF020
:104A5000200100F0FC800E9B073323F00703596808
:104A600053F8082B0E931BF0010F0AD052EA0103F2
:104A700007D0109B8DF8893030234BF0020B8DF856
:104A800088302BF480650223FFF768BB1093FFF793
:104A9000BCBB1093A54B1893D9E70E9B012153F88B
:104AA000042B07918DF8FC200E930A913FACFFF781
:104AB000BBBA0C992CAA504602F05AFD00287FF48C
:104AC00014AD2E9E0DF1BC0968E440215046FDF75F
:104AD0002FFF0C9B18601861002800F060860C9A6C
:104AE00040235361FFF7B2B8089B0D94062B214673
:104AF00028BF06230894224607938D4C0E970A93ED
:104B0000129116911191FFF769BA102F2D9B894DC3
:104B100040F34582324626460C9C05E009F108091F
:104B2000103F102F40F33982013310321021072B30
:104B3000CDE92D32C9F80050C9F80410EEDD2CAAD9
:104B40002146504602F014FD00287FF4CEACDDE98A
:104B50002D320DF1BC09E3E7139B0A9DCDF83C8093
:104B60004A46DDF85890CDF828B0E31808931A9F0C
:104B7000DDF874B0DDF83080129B10943146B9F145
:104B8000000F2ED083BB013F09F1FF391C9BC2E906
:104B9000003B2D9B01335944072B2E912D935FDC55
:104BA0000832089B38785B1B8342A8BF0346002B62
:104BB0001E460BDD2D98013019440728C2E9005329
:104BC0002E912D9000F3568138780832002EACBF1C
:104BD000841B0446002C0BDC0544129BB9F1000F2A
:104BE000D0D1002B00F0D483129B013B1293CDE770
:104BF000102C2D981DDD102604E0103C102C02F125
:104C0000080216DD01304B4B10310728C2E900368F
:104C1000CDE92D01F1DD2CAA4146504602F0A8FC59
:104C200000287FF462AC103C102CDDE92D012FAA86
:104C3000E8DC01303F4B546021440728CDE92D01C9
:104C4000136000F3FB83387808320544C5E71BF096
:104C5000100300F0BC800E9B53F8042B0E9302E768
:104C60002CAA4146504602F083FC00287FF43DAC5C
:104C70002E992FAA95E7CDF834902F4BDDF8689048
:104C8000CDF81C8005F480674FF0000C58AC4FF055
:104C9000CC3B0A9505E00A2A71F1000134D3424663
:104CA0003146501840F10000A3FB005626F00305E2
:104CB00005EB9605401B151A61F1000E0BFB05F67E
:104CC00003FB0E66A5FB03852E4408F0010E0525A7
:104CD000AEFB055E2D184FEA5808303504F8015C2C
:104CE00048EAC6780CF1010C013C7608002FD2D0BE
:104CF00099F800008445CED1BCF1FF0FCBD00A2A31
:104D000071F1000180F098810A9DCDF8689058AB50
:104D10001B1BDDF81C80DDF83490CDF84CC0AB4691
:104D20000A93FFF7E1BA00BFE8950000FC95000088
:104D3000109600002C960000CDCCCCCC0123C9F8F5
:104D400004302D9BBA4AC9F8002001330136072BE5
:104D50002E962D9300F38C8109F10809002940F06B
:104D6000BE80139A0BF0010313433FF4D8A8179B9E
:104D700019999A19C9E900132D9B2E920133072B1B
:104D80002D9300F36E8209F108091399C9F80040C8
:104D900001338E18072BCDE92D36C9F804107FF7A3
:104DA000BCA8FFF7F1BB0C991E932CAA504602F049
:104DB000DFFB00287FF499AB9DF887202E9E1E9B79
:104DC0000DF1BC09FFF76AB8C246FFF78EBB1BF0B6
:104DD000400200F0B8800E9850F8042B0E9019464F
:104DE00092B240E60C992CAA504602F0C1FB002872
:104DF0007FF47BAB2E9E0DF1BC09FFF7BCBA2AAE47
:104E00000822002130462594FEF7FEFB089B5A1C21
:104E100000F0D4800025CDF81C80CDF834B0A84631
:104E20009B460CE03FA9504601F092FA431C4044D7
:104E300000F0B883584508DC00F035848046259A98
:104E4000525933460435002AECD1CDF82880DDF8DC
:104E500034B0DDF81C80BEE0164601332644072B33
:104E6000C9F80050C9F80440CDE92D367FF755A8A0
:104E7000FFF78ABB2CAA4146504602F079FB002876
:104E80007FF433AB38782E992FAA9FE60C992CAA81
:104E9000504602F06DFB00287FF427AB2E9E0DF1EB
:104EA000BC09FFF723B8012B5D467FF409AAFFF781
:104EB000B9BB0E9B099953F8042B444611600E931D
:104EC000FEF7D6BE164601372644072FCDE92D76CC
:104ED000C9F80050C9F804407FF747AB91E4179B2D
:104EE00019989A19C9E900032D9B2E920133072BBB
:104EF0002D9300F3B68109F108090029BFF645AFEB
:104F00004F4210314B4D80F2888349461026A1460E
:104F10000C9C04E00831103F102F40F37C830133D8
:104F20001032072BC1E90056CDE92D32F2DD2CAA53
:104F30002146504602F01CFB00287FF4D6AADDE98A
:104F40002D322FA9E7E70E9B1BF400711ABF114603
:104F500053F8042B53F8042B0E9318BFD2B282E5FA
:104F60000E9B1BF400711ABF114653F8042B53F823
:104F7000042B0E9318BFD2B2FFF753B90E9B15F452
:104F800000711ABF114653F8042B53F8042B0E93EB
:104F900018BFD2B20123FFF7E1B8344616460133F9
:104FA0003E44072BCDE92D36C9F80050C9F80470EE
:104FB00000F34A8109F10809FFF7B3BB0023194642
:104FC000009625AA504601F0E9F9034601330A90FC
:104FD00000F0E88225940A9B002B3DD0632B00F360
:104FE000298100230D933FAC082200213046FEF7B3
:104FF0000BFB0A9D00962B4625AA2146504601F040
:10500000CDF9854240F0C4830A990E97002363547A
:1050100021EAE1719DF88720089307911293169376
:105020001193FEF7DBBF2D228DF88720FEF7C5BF59
:10503000189600002C9600001D9B1C99E41A1A4635
:105040002046FEF733FB99F80120A54B0AB109F180
:1050500001094FF0000C22E60A9B9DF887200E976D
:10506000CDE907331293169311930D93FEF7B6BF54
:105070000C992CAA504602F07BFA00287FF435AA3E
:1050800023992E9E0DF1BC0968E6139A0A99A5187A
:105090006D1AD41AA542A8BF2546FFF777BB13F9AE
:1050A000042B0E93D1170B46FFF707B80E9B0999F7
:1050B00053F8042B0E9311804446FEF7D9BD089B8C
:1050C0000A9302232AA9049125A90A9D039123A9E1
:1050D00000933A46334601950291504601F0D8FAC2
:1050E000079B472B044600F0A381462B054405D1BE
:1050F0000378302B00F0B882239B1D44384631469C
:1051000000220023FDF7CCFB002800F066812B462F
:105110001B1B1393079B472B00F04A81079B462BD1
:1051200000F00082239B1193119B079A013B412AB7
:10513000239300F023829DF840200021002BB8BF6C
:10514000119B8DF89820BABFC3F101032D222B22A9
:10515000092B8DF8992040F34F820DF1AF05614E78
:105160002A46104686FB0321DA17C2EBA10202EBA6
:105170008201A3EB4101303100F8011C194663297B
:10518000134600F1FF32ECDC3033D9B2831E9D426E
:1051900002F8011C40F2E98213460DF19A0201E087
:1051A00013F8011B02F8011B9D42F9D10DF1B10367
:1051B0000DF19A021B1A134426AA9B1A1B93139BE8
:1051C0001B9A012B1A440A9240F349820A9B179AB0
:1051D00013440A930F9B0A9A23F4806343F4807B61
:1051E00022EAE272002312930792169311931E9BF8
:1051F000002B40F0EB809DF887200893FEF7EEBE71
:1052000020460E97FEF71CFB119B089320EAE071E5
:10521000129316930D9373239DF887200A9007919C
:105220001093FEF7DBBE0C992CAA504602F0A0F9B1
:10523000FEF7F8BD591C5046FDF77AFB04460028DE
:1052400000F0B0810D90CFE60C992CAA504602F0E8
:105250008FF900287FF449A92E9E0DF1BC09FFF7B4
:1052600060BA0C992CAA504602F082F900287FF40B
:105270003CA9DDE92D3223990DF1BC093DE6062359
:105280000893FFF7A0BB089B01330A93022319E799
:10529000089B0A93032315E73846314623AA01F0F9
:1052A000CFF800224FF07F5303F0FEFD00220023D1
:1052B00006460F46FDF7F4FA08B1012323930A4B83
:1052C0000A93089BCDF84C90013BCDE9118B254604
:1052D000DDF828B0CDF858A098461F940DE000BF27
:1052E000CDCCCCCC67666666FC950000002200231E
:1052F00008F1FF38FDF7D4FAE8B9AE4B002230468A
:10530000394603F0D1FD0F46064603F0DFFF0446A1
:10531000FDF706FA0B46024639463046FDF7B2F86D
:105320001BF80430B8F1FF3FAA46C14605F8013B1F
:1053300006460F46DAD1A04B002230463946DDE959
:10534000118BCDF84490DDF84C90CDE912A4DDF836
:1053500058A01F9CFDF7CCFA002840F03181964BF5
:10536000304639460022FDF79BFA18B1139BDE0741
:1053700000F12681119B002B07DB119B01332B448D
:10538000302205F8012BAB42FBD12B1B1393C1E656
:10539000109C139BDDF828B0DDF83C801A97E318C9
:1053A0009D4228BF1D4691460E460A95FFF7C0B99B
:1053B000239B1193DD1C02DB089A934219DD109B9D
:1053C000023B109323F020030793ADE62D22002328
:1053D0008DF887200893FEF704BE2A9BAB42BFF4EA
:1053E00097AE30215A1C2A9219702A9B9D42F9D8F7
:1053F0008EE6119B139A9342C0F2C5800F9B13F067
:10540000010F119B00F04D81179A13440A930F9BD3
:10541000590503D5119B002B00F356810A9B23EA03
:10542000E373079367231093002312931693DEE62A
:105430000F9BDB0700F19F802A9B69E62CAA41465F
:10544000504602F095F800287FF44FA838782E993E
:105450002FAA0544FFF7C1BB78238DF8893030238C
:105460008DF888304BF002030F93089B632B00F3F9
:10547000ED8000230D933FACDDE914121346002BA1
:105480004BF4817B67DB1E46109B23F020030793C0
:1054900000230F461E93109B612B7FF4A4AA38466D
:1054A000314623AA00F0CCFF00224FF07F5303F0D7
:1054B000FBFC0022002306460F46FDF7F1F908B178
:1054C000012323933D4B0A93FBE60C992CAA5046EB
:1054D00002F04EF800287FF408A82E9E0DF1BC09BA
:1054E000FFF718B90C992CAA504602F041F8002891
:1054F0007EF4FBAF239B2E9E0DF1BC09FFF72EB966
:105500005823AAE70C992CAA504602F031F800283B
:105510007EF4EBAF239C139B2E9E1C1B0DF1BC094C
:10552000FFF734B9239A0F9B1192002A03F001036D
:1055300040F3088108990B4340F0FD80119B0A93CA
:10554000662310930F9B5A0500F1C0800A9B23EA43
:10555000E373079368E7109B23F020030793DDE9CB
:10556000142303F100462D2317461E9393E70022D0
:105570000892FEF7AABB0A9D2544BFE5109A0F3298
:10558000D2B20121DAE5139B179A9A18119B0A925D
:10559000002B40F38F8067231093D3E79B460023B3
:1055A0000D93DCE70C9AB2F90C3043F04003938181
:1055B000FEF73BBC000030400000E03FE8950000F3
:1055C000129B0A9A2A93D17B15F8013C8B422A46FA
:1055D00009D1302002F8010C2A9A531E2A9312F89E
:1055E000013C9942F6D0392B0BBF0A9B01339B7AC1
:1055F000DBB202F8013CC8E6002940F08C80302282
:105600008DF89A200DF19B02303302F8013B26AB56
:10561000D31A1B93D3E54C46894601333A44072BF2
:10562000CDE92D32C9F80050C9F804707FF7ABAB53
:105630000C992CAA504601F09BFF00287EF455AF30
:10564000DDE92D320DF1BC09FFF79FBB591C504617
:10565000FDF76EF904460028A4D00D900CE70F9BCF
:10566000D8077FF5B7ADB1E53846314600220023B3
:10567000FDF716F900287FF43FAD0A9BC3F1010343
:1056800023933AE5159B4A4C002BB4BF2D229DF87D
:105690008720484BB8BF8DF887202BF0800BFEF792
:1056A00090BC0A93B3E6089BDDF81C80DDF834B0AB
:1056B0000A9390E4C3F101031A4422EAE2730793C8
:1056C00067230A921093AFE6672310931A990B7819
:1056D000FF2B59D00025119A284603E001300131F3
:1056E000FF2B08D0934206DAD21A4B78002BF5D163
:1056F0000B780135F4E711921A9116901295129ACF
:10570000169B1D9913440A9A01FB03230A9323EA6B
:10571000E37307936BE50DF19A0275E7089B079316
:105720000A9373239DF887200E9708901290169085
:105730001093FEF753BC179BD518294466230A9192
:105740001093FFE6089A134305D1012366220793BD
:1057500010920A9368E6179B5D1C2A4422EAE273C2
:10576000079366230A9210935EE602231B9326E5B5
:105770000E9A98F80130884652F8041B0E9241EABE
:10578000E1710891FEF79FBA002312931693B6E7D2
:105790000C9A938943F040039381FEF7A6BE0C2335
:1057A000CAF800304FF0FF330993FEF745BB00BF46
:1057B000E0950000E4950000436C70B505460C468A
:1057C0004BB153F8240080B1026843F82420002331
:1057D000C0E9033370BD2122042100F089FE034695
:1057E00068640028EDD1002070BD012101FA04F6A3
:1057F000721D9200284600F07BFE0028F3D0C0E91D
:105800000146E4E731B1436C4A6853F8220008606E
:1058100043F82210704700BF2DE9F0410D6907469B
:105820000E461C4601F1140E0020DEF800108BB26B
:1058300002FB03434FEA134C090C02FB01CC01307D
:105840009BB203EB0C4385424EF8043B4FEA1C44E9
:10585000EBDC3CB1B368AB4207DD06EB85030135F9
:105860005C6135613046BDE8F081716838460131D0
:10587000FFF7A2FF8046A8B13269023206F10C019F
:1058800092000C30FBF794F97B6C726853F822108D
:10589000316043F82260464606EB850301355C61C2
:1058A0003561DFE7024B03484246BA2100F000FEB3
:1058B0003C96000050960000020C12040346CAB940
:1058C0000304102013F07F4F04BF1B02083013F0B5
:1058D000704F04BF1B01043013F0404F04BF9B0006
:1058E0000230002B05DB13F0804F00F1010008BFF0
:1058F000202070470020E5E7036813F00702014607
:1059000007D0DA071FD4980721D55B080B60012068
:10591000704798B2A0B11046DAB20AB908301B0A33
:105920001A0704BF1B0904309A0704BF9B08023002
:10593000DA0703D45B0800F1010006D00B60704762
:105940001B0C1020E8E700207047202070479B08C0
:105950000B600220704700BF38B5436C04460D460B
:105960004BB15868B0B102685A6000220123C0E907
:105970000435C26038BD2122042100F0B9FD034680
:1059800060640028EDD1094B0948002240F245111E
:1059900000F08EFD1C220121204600F0A9FD002808
:1059A000F1D001220223C0E90123DEE73C9600008A
:1059B000509600002DE9F04F0E691569AE4285B092
:1059C0008846144605DB2A46234635460C461646CD
:1059D0009846A3686168AF19BB42B8BF0131FFF7B1
:1059E000EBFE0190002800F08780019B03F1140971
:1059F00009EB870AD14505D24B46002243F8042B18
:105A00009A45FBD808F1140808EB860B04F114033F
:105A1000D8451A4603EB85055FD22B1B153B23F0B7
:105A2000030304331534A54238BF0423CDE902A78C
:105A3000AC461F46924605E0090C29D1C34509F141
:105A4000040948D958F8041B8DB2002DF4D05646ED
:105A50004C46002356F8041B22681FFA81FE90B2C0
:105A6000090C05FB0E00120C034405FB012202EB9E
:105A700013429BB243EA0243B44544F8043B4FEA65
:105A80001243E7D849F8073058F8041C090CD5D060
:105A9000D9F8003050461A464C4600260588120CAC
:105AA00001FB052216449BB243EA064344F8043B3B
:105AB00050F8045B22682D0C93B201FB053303EB15
:105AC000164384454FEA1346E8D8C34549F80730E2
:105AD00009F10409B6D8DDE902A7002F02DC05E0D0
